:1000000033EF07F00000000000EF00F000000000F8
:0A0010000000000000000000F3D71C
:0A001C00210E0D6E0D2EFED712000E
:100026000F0E0C6E470E0D6E0D2EFED70C2EFCD746
:06003600000000001200B2
:06003C00000000001200AC
:10004200020137BF02D0819601D0818637BD02D02E
:10005200819401D0818437BB02D0819201D0818208
:1000620037B902D0819001D081800FB102D081884E
:1000720001D08198818AE1DF819A37B702D08196D7
:1000820001D0818637B502D0819401D0818437B303
:1000920002D0819201D0818237B102D0819001D009
:1000A20081800FB102D0818801D08198818AC5DF19
:0E00B200819A0FA102D0B6DF01D0AFDF12009D
:0E00C00002010F9132C237F2BCDF0F81120035
:1000CE0032C2E9FF33C2EAFFEE500201341905E1F4
:1000DE0032C200F033C201F010D032C200F033C28F
:1000EE0001F0324B332B00C0E9FF01C0EAFFEECF27
:0C00FE0000F00052E5E1006A016A120007
:10010A0032C202F033C203F002C000F003C001F0B1
:10011A00024A032A00C0E9FF01C0EAFFEE5201E0E9
:10012A00F3D702013251025C006E33510358016E5B
:0A013A00010E005E000E015A1200D3
:1001440036C200F002013607005228E032C2E9FF4D
:1001540033C2EAFFEE50000A0CE032C2E9FF33C2B8
:10016400EAFF34C2D9FF35C2DAFFEE50DE1801E1EE
:100174000FD032C2E9FF33C2EAFF34C2D9FF35C21D
:10018400DAFFDE50EE5C006E016A000E015A08D000
:100194000201324B332B344B352BD2D7006A016A20
:0201A400120047
:1001A600AECF01F0ABA202D0AB98AB8801C000F095
:0201B600120035
:1001B8000B6A0A6A096A00500402F4CF09F0F3CF07
:1001C80008F001500502F4CF0BF0F3CF0AF000500D
:1001D8000502F3500926F4500A22E86A0B2201505E
:1001E8000402F3500926F4500A22E86A0B2208C0D8
:1001F80000F009C001F00AC002F00BC003F01200C1
:0A020800000E9EBA010E006E1200F7
:0C021200060E0D6E0D2EFED7000012002F
:10021E00000E02012E1902E1000E2D1934E02DC23E
:10022E00E9FF2EC2EAFFEE522EE02FC232F230C2AA
:10023E0033F264DF00C036F22DC232F22EC233F238
:10024E002FC234F230C235F276DF000E011802E111
:10025E00000E001805E12DC200F02EC201F015D0DF
:10026E00010E02012D25326F000E2E21336F2FC28B
:10027E00E9FF30C2EAFFEECF34F222DF00C02DF2EA
:0C028E0001C02EF2C5D7006A016A120000
:10029A00A6A202D00000FCD7A69C2DC2A9FF2EC29E
:1002AA00A8FFA69EA684F2CF00F0F29E550EA76E76
:1002BA00AA0EA76EA68200BE02D0F29E01D0F28ECE
:0402CA00A6941200E4
:1002CE0002012D6B2F6B306B100E316F040E305DF3
:1002DE001DE2F00E836E311D956EA9DEA8DE0F0EA7
:1002EE008314006E00C02EF200520AE02FC22DF2CF
:1002FE002E5304E02E332E9F2D2BFAD7040E306F83
:10030E0031373191040E2F27302BE0D72DC200F05C
:02031E001200CB
:1003200010D0800E02012D6F1AD0C00E2D6F17D085
:10033000940E2D6F14D0D40E2D6F11D0800E2D6F12
:100340000ED002012D51010AECE02D51020AEDE020
:100350002D51030AEDE02D51040AEDE0EFD72E05F3
:10036000006E2D51002600C02DF200C037F269DE6C
:100370000F91316B31512F25E96E000E3021EA6E5D
:10038000EE520BE031512F25E96E000E3021EA6E5E
:0E039000EECF32F295DE312BEDD70F81120049
:10039E00A69C2DC2A9FFA69EA680A8CF00F0120093
:1003AE00516A82802ADF0050010AD8A493D051509E
:1003BE00000AD8A48FD0726A0C0E725C16E21DDF92
:1003CE00005201E1FCD7FA0E02012B6F010E2C6FC9
:1003DE0072502B27D8B02C2BDFDE2BC2E1FF2CC2A4
:1003EE00E2FF00C0E6FF722AE7D782900101FA51C0
:1003FE000A0A61E1020105510D0A5DE1726A100EF1
:10040E00725C58E20201FA0E2D6F010E2E6F0E0E67
:10041E00006E000E016E72C004F0000E056EC5DE99
:10042E00E90E00242F6F000E0120306FF1DE00C0A8
:10043E0021F20050000A3CE00201206B0A0E205D02
:10044E0027E20E0E006E000E016E72C004F0000E5A
:10045E00056EABDEE90E0026000E012220510024AF
:10046E00E16E000E0120E26E9F0EE66E72C02DF25E
:10047E002D372D912D372D912D372D912D372D91E6
:10048E0020512D279F0E2E6F01DF0201202BD6D774
:10049E00010E516E010E376FCDDD010E2D6F030E65
:1004AE002E6FDC0E2F6F000E306F33DF006A13D00D
:1004BE00722AA5D70FD00201010E376FBBDD010ED8
:1004CE002D6F050E2E6FC90E2F6F010E306F21DFAF
:0804DE00006A01D067D712008B
:1004E600516A82808EDE0050010AD8A4F8D051509D
:1004F600000AD8A4F4D0726A0C0E725C16E281DE91
:10050600005201E1FCD7FA0E02012B6F010E2C6F8F
:1005160072502B27D8B02C2B43DE2BC2E1FF2CC206
:10052600E2FF00C0E6FF722AE7D782900101FA5186
:100536000A0AD8A4C5D0020105510D0AD8A4C0D014
:10054600726A100E725C2DE20201FA0E2D6F010E18
:100556002E6F0E0E006E000E016E72C004F0000EBD
:10056600056E27DEE90E00242F6F000E0120306F86
:1005760053DE00C021F20050000A11E0010E020114
:10058600376F5CDD010E2D6F020E2E6FE00E2F6FA2
:10059600010E306FC2DE010E516E006AA1D0722AC2
:1005A600D0D75150000AD8A48AD0726A7250F00887
:1005B6000EE372C02DF2F0DE00C022F200509F0A58
:1005C60003E172C0D0F103D0100E7226EFD7010EF0
:1005D600726E0B0E725C40E27204006E00500101F6
:1005E600D02502012D6FFA0EE96E010EEA6E7250E9
:1005F600E926D8B0EA2AEECF2EF24CDED0C100F0C2
:100606000032009E0032009E0032009E0032009EA4
:10061600000E016E0E0E046E000E056ECADDE90EAA
:100626000024026E000E0120036E7204006E016A41
:10063600000E015A00500224E16E01500320E26EC2
:10064600FA0EE96E010EEA6E7250E926D8B0EA2A71
:10065600EECFE6FF722ABDD7FA0E02012D6F010E0C
:100666002E6FD0C100F00032009E0032009E003294
:10067600009E0032009E000E016E0E0E046E000EED
:10068600056E97DDE90E00242F6F000E0120306FF6
:10069600C3DD00C021F20050000A11E0010E020184
:1006A600376FCCDC010E2D6F030E2E6FCA0E2F6F27
:1006B600000E306F32DE010E516E006A11D00FD07F
:1006C6000201010E376FBADC010E2D6F050E2E6F7B
:1006D600D50E2F6F000E306F20DE006A01D002D7D4
:0206E600120000
:1006E80051D0310E02012B6F310E006E7CD0340ECA
:1006F8002B6F340E006E77D0370E2B6F370E006ECF
:1007080072D02A0E2B6F2A0E006E6DD0320E2B6F10
:10071800320E006E68D0350E2B6F350E006E63D02A
:10072800380E2B6F380E006E5ED0300E2B6F300EE9
:10073800006E59D0330E2B6F330E006E54D0360E28
:100748002B6F360E006E4FD0390E2B6F390E006EA0
:100758004AD0230E2B6F230E006E45D0410E2B6F0F
:10076800410E006E40D0420E2B6F420E006E3BD001
:10077800430E2B6F430E006E36D0440E2B6F440E83
:10078800006E31D002012B51010AABE02B51020A55
:10079800AEE02B51030AB0E02B51040AB2E02B5112
:1007A800050AB4E02B51060AB6E02B51070AB8E057
:1007B8002B51080ABAE02B51090ABCE02B510A0A4E
:1007C800BEE02B510B0AC0E02B510C0AC2E02B51A2
:1007D8000D0AC4E02B510E0AC6E02B510F0AC8E0DF
:0807E8002B51100ACAE01200B7
:1007F0006EDD00C02BF20F0E8314006E02E009DDE7
:08080000FAD72BC200F0120030
:100808000201236BF1DF00C023F20052FBE023C298
:100818002BF266DF00C023F20050310A1DE1010E01
:10082800376F0BDC010E2D6F010E2E6F520E2F6FDE
:10083800000E306F71DD0B0E0B6E260E0C6E5D0E0A
:100848000D6E0D2EFED70C2EFCD70B2EFAD70000FE
:10085800000045DE006A28D002012351320A1EE159
:10086800010E376F21EC00F0010E2D6F010E2E6F77
:100878005F0E2F6F000E306F4FDD0B0E0B6E260EC6
:100888000C6E5D0E0D6E0D2EFED70C2EFCD70B2EAA
:10089800FAD70000000087DD006A06D00201235164
:0A08A800330A02E1006A00D01200DA
:1008B2000201206B100E205D37E2726A0A0E725C32
:1008C20031E20E0E006E000E016E20C204F0000E28
:1008D200056E71DCE90E0026000E01227250002422
:1008E200286F000E0120296F20C22DF22D372D9185
:1008F2002D372D912D372D912D372D9172502D277A
:100902004DDD28C2E1FF29C2E2FF00C0E6FF1A0E58
:100912000C6EF80E0D6E0D2EFED70C2EFCD70000BD
:0A092200722ACCD7202BC6D7120092
:10092C00010E0201376F21EC00F0010E2D6F010E4C
:10093C002E6F3F0E2F6F000E306FECDC0B0E0B6E1C
:10094C00260E0C6E5D0E0D6E0D2EFED70C2EFCD7EA
:10095C000B2EFAD700000000010E376F21EC00F0CF
:10096C00010E2D6F010E2E6F150E2F6F000E306FB6
:04097C00D1DC1200B8
:10098000FF0E0201186FFF0E196FFF0E1A6FFF0E98
:100990001B6FA60E1C6F010E1D6F000E1E6F000E4A
:1009A0001F6F080E106F020E116F000E126F000EF7
:1009B000136FFF0E146FFF0E156F000E166F000EF3
:1009C000176FAC8A900EAB6E948E949C9EAA03D047
:0809D000AECF00F0FBD71200CE
:0609D800FF0E956E1200F7
:1009DE00939A93989390939293949396819A8198E5
:1009EE00819681948192819013EC00F013EC00F0CB
:1009FE0013EC00F081828180818A1EEC00F0819AD6
:100A0E0013EC00F0818A1EEC00F0819A13EC00F0DA
:100A1E00818A1EEC00F0819A13EC00F08190818A9D
:100A2E001EEC00F0819A13EC00F0818A1EEC00F0AF
:100A3E00819A81928186818A1EEC00F0819A13EC54
:100A4E0000F081968180818A1EEC00F0819A81905F
:100A5E00818A1EEC00F0819A13EC00F0818A1EEC64
:100A6E0000F0819A8180818A1EEC00F0819A13EC4D
:100A7E0000F08190818A1EEC00F0819A818681843B
:100A8E0081828180818A1EEC00F0819A13EC00F045
:060A9E0002010F811200AD
:100AA40010D0800E0201286F1AD0C00E286F17D004
:100AB400940E286F14D0D40E286F11D0800E286F96
:100AC4000ED002012851010AECE02851020AEDE09F
:100AD4002851030AEDE02851040AEDE0EFD7290577
:100AE400006E2851002600C028F20F8100C037F2A2
:100AF40021EC00F00F912AC237F221EC00F00F81B3
:020B04001200DD
:100B0600716A010E0201376F21EC00F0010E2D6FA4
:100B1600010E2E6FAC0E2F6F000E306F90EC01F0B1
:100B26000B0E0B6E260E0C6E5D0E0D6E0D2EFED789
:100B36000C2EFCD70B2EFAD700000000010E376FE3
:100B460021EC00F0010E2D6F010E2E6F800E2F6F1F
:100B5600000E306F90EC01F00B0E0B6E260E0C6E35
:100B66005D0E0D6E0D2EFED70C2EFCD70B2EFAD772
:100B760000000000010E376F21EC00F0010E2D6F12
:100B8600010E2E6F8E0E2F6F000E306F90EC01F05F
:100B9600020E2D6F010E2E6F310E2F6F000E306F6D
:080BA60090EC01F02EDE1200BC
:100BAE00716A726A010E0201376F21EC00F0010EBC
:100BBE002D6F010E2E6FD10E2F6F010E306F90EC38
:100BCE0001F00B0E0B6E260E0C6E5D0E0D6E0D2EC5
:100BDE00FED70C2EFCD70B2EFAD700000000120009
:100BEE00010E0201376F21EC00F0010E2D6F010E88
:100BFE002E6F220E2F6F000E306F90EC01F00B0E49
:100C0E000B6E260E0C6E5D0E0D6E0D2EFED70C2E7F
:100C1E00FCD70B2EFAD700000000010E376F21EC27
:100C2E0000F0010E2D6F010E2E6F440E2F6F000E71
:080C3E00306F90EC01F0120090
:100C46009490828033DEC5DEC7DE010E376F21EC5D
:100C560000F00C0E376F21EC00F0010E2D6F020E26
:100C66002E6FBD0E2F6F000E306F90EC01F0CF0E81
:100C7600AF6EAC8482DE020E0B6E040E0C6EBA0EE4
:100C86000D6E0D2EFED70C2EFCD70B2EFAD70000BC
:020C960012004A
:100C98000900F5CFE6FF0006FBE10106F9E11200C5
:100CA8000201236BA1DD00C023F20050000A02E11B
:100CB800006A75D023C22BF213DD00C023F2EF0EB9
:100CC800E16E010EE26E7150E126000E71BEFF0E5C
:100CD800E22200C0E6FF020E286F7150010F296F53
:100CE80023C22AF2DBDE722A712A800E030A006E02
:100CF800800E7118005C52E2020E286F7250010FCC
:100D0800296FEF0EE96E010EEA6E7150E926000EAA
:100D180071BEFF0EEA22EECF2AF2C0DEEF0E2D6F73
:100D2800010E2E6F6C0E2F6F000E306F0FEC01F05E
:100D380000C0F9F10050000A20E0E1DE0B0E0B6E56
:100D4800260E0C6E5D0E0D6E0D2EFED70C2EFCD7EA
:100D58000B2EFAD700000000010E0201376F21ECBC
:100D680000F0010E2D6F020E2E6F730E2F6F000E06
:100D7800306F90EC01F0006A12D015DF010E376F6A
:100D880021EC00F0010E2D6F020E2E6F9F0E2F6FBB
:100D9800000E306F90EC01F0006A01D081D712008C
:100DA800828004EC01F00050010A4DE1726A0C0ED9
:100DB800725C18E204EC01F0005201E1FBD7FA0E74
:100DC8000201246F010E256F72502427D8B0252BFD
:100DD800D3EC00F024C2E1FF25C2E2FF00C0E6FF29
:100DE800722AE5D782900101FA510A0A2CE1020120
:100DF80005510D0A28E1726A100E725C21E20201A7
:100E0800FA0E2D6F010E2E6F0E0E006E000E016E83
:100E180072C004F0000E056EDCEC00F0E90E002450
:100E28002F6F000E0120306F0FEC01F000C00EF2A2
:100E38000050000A03E076DD006A05D0722ADCD78C
:080E4800D2DE006A00D01200A6
:100E5000949894968B988B9694889486C79EC79CFA
:060E6000380EC66E120000
:100E66002FEC08F0EDDE140EC86EEFDF9ADF19DF07
:040E7600FDD7FFD7CE
:10105E0010EE15F0E40E006E020E016E7A0EF66EB4
:0E106E000E0EF76E000EF86E4CEC06F012003F
:0D0E7A005061737320596F75722049440058
:0F0E87004E6F74205265676973746572656400FD
:0E0E9600322052656D6F7665204361726400F4
:050EA400446F6E6500C3
:0D0EA9005061737320596F75722049440029
:010EB600003B
:0D0EB700507574205468652043617264001A
:0D0EC400507574205468652043617264000D
:050ED100313131310058
:010ED600001B
:010ED700001A
:0D0ED8005061737320596F757220494400FA
:0E0EE50043686F6F7365204F7074696F6E0005
:100EF3003120416464436172642033204261636B37
:010F030000ED
:0D0F04005061737320596F757220494400CD
:100F1100436F72726563742050617373776F72648B
:010F210000CF
:0D0F22005061737320596F757220494400AF
:0B0F2F0043617264204164646564004B
:070F3A004661696C6564006B
:0D0F4100436172642052656D6F7665640037
:100F4E000000000000000000000000000000000093
:100F5E000000000000000000000000000000000083
:100F6E000000000000000000000000000000000073
:100F7E000000000000000000000000000000000063
:100F8E000000000000000000000000000000000053
:100F9E000000000000000000000000000000000043
:100FAE000000000000000000000000000000000033
:100FBE000000000000000000000000000000000023
:100FCE000000000000000000000000000000000013
:100FDE000000000000000000000000000000000003
:100FEE0000000000000000000000000000000000F3
:100FFE0000000000000000000000000000000000E3
:10100E0000000000000000000000000000000000D2
:10101E0000000000000000000000000000000000C2
:07102E004661696C65640076
:0110350000BA
:0F103600576F726E672050617373776F7264002B
:0F104500416C726561647920457869737473003A
:0A1054000000000000000000000092
:020000040030CA
:0D000100220F0EFF0181FF0FC00FE00F4026
:0200000400F00A
:10000000344530303743443239319F9F9F9F9F9F03
:100010009F9F9F9F9F9F9F9F9F9F9F9F9F9F9F9FF0
:100020009F9F9F9F9F9F9F9F9F9F9F9F9F9F9F9FE0
:100030009F9F9F9F9F9F9F9F9F9F9F9F9F9F9F9FD0
:100040009F9F9F9F9F9F9F9F9F9F9F9F9F9F9F9FC0
:100050009F9F9F9F9F9F9F9F9F9F9F9F9F9F9F9FB0
:100060009F9F9F9F9F9F9F9F9F9F9F9F9F9F9F9FA0
:100070009F9F9F9F9F9F9F9F9F9F9F9F9F9F9F9F90
:100080009F9F9F9F9F9F9F9F9F9F9F9F9F9F9F9F80
:100090009F9F9F9F9F9F9F9F9F9F9F9F9F9F9F9F70
:1000A0009F9F9F9F9F9F9F9F9F9F9F9F9F9F9F9F60
:1000B0009F9F9F9F9F9F9F9F9F9F9F9F9F9F9F9F50
:1000C0009F9F9F9F9F9F9F9F9F9F9F9F9F9F9F9F40
:1000D0009F9F9F9F9F9F9F9F9F9F9F9F9F9F9F9F30
:1000E0009F9F9F9F9F9F9F9F9F9F9F9F9F9F9F9F20
:1000F0009F9F9F9F9F9F9F9F9F9F9F9F9F9F9F9F10
:00000001FF

