:1000000051EF03F00000000000EF00F000000000DE
:0A0010000000000000000000F3D71C
:10001C000F0E0C6E470E0D6E0D2EFED70C2EFCD750
:06002C00000000001200BC
:06003200000000001200B6
:0A003800210E0D6E0D2EFED71200F2
:1000420001016CBF02D0819601D081866CBD02D0C5
:10005200819401D081846CBB02D0819201D08182D3
:100062006CB902D0819001D0818059B102D08188CF
:1000720001D08198818ADCDF819A6CB702D08196A7
:1000820001D081866CB502D0819401D081846CB399
:1000920002D0819201D081826CB102D0819001D0D4
:1000A200818059B102D0818801D08198818AC0DFD4
:0E00B200819A59A102D0B1DF01D0BDDF12004A
:0E00C000010159916BC16CF1BCDF5981120036
:1000CE00AECF01F0ABA202D0AB98AB8801C000F06E
:0200DE0012000E
:1000E00066C102F067C103F002C000F003C001F076
:1000F000024A032A00C0E9FF01C0EAFFEE5201E014
:10010000F3D701016651025C006E67510358016E1E
:0A011000010E005E000E015A1200FD
:0A011A00000E9EBA010E006E1200E6
:100124000B6A0A6A096A00500402F4CF09F0F3CF9B
:1001340008F001500502F4CF0BF0F3CF0AF00050A1
:100144000502F3500926F4500A22E86A0B220150F2
:100154000402F3500926F4500A22E86A0B2208C06C
:1001640000F009C001F00AC002F00BC003F0120055
:10017400A69C66C1A9FFA69EA680A8CF00F0120087
:1001840066C1E9FF67C1EAFFEE500101681905E1A4
:1001940066C100F067C101F010D066C100F067C10C
:1001A40001F0664B672B00C0E9FF01C0EAFFEECF08
:0C01B40000F00052E5E1006A016A120050
:1001C00010D0800E0101666F1AD0C00E666F17D076
:1001D000940E666F14D0D40E666F11D0800E666FC9
:1001E0000ED001016651010AECE06651020AEDE011
:1001F0006651030AEDE06651040AEDE0EFD76705AA
:10020000006E6651002600C066F100C06CF119DF77
:1002100059916A6B6A516825E96E000E6921EA6E90
:10022000EE520BE06A516825E96E000E6921EA6E14
:0E023000EECF6BF145DF6A2BEDD7598112003E
:10023E006AC100F001016A07005228E066C1E9FFB9
:10024E0067C1EAFFEE50000A0CE066C1E9FF67C124
:10025E00EAFF68C1D9FF69C1DAFFEE50DE1801E18D
:10026E000FD066C1E9FF67C1EAFF68C1D9FF69C156
:10027E00DAFFDE50EE5C006E016A000E015A08D005
:10028E000101664B672B684B692BD2D7006A016A56
:02029E0012004C
:0602A000FF0E956E120036
:1002A600939A93989390939293949396819A819824
:1002B6008196819481928190AEDEADDEACDE818244
:1002C6008180818AB3DE819AA6DE818AAFDE819A39
:1002D600A2DE818AABDE819A9EDE8190818AA6DECD
:1002E600819A99DE818AA2DE819A81928186818AAB
:1002F6009DDE819A90DE81968180818A97DE819A41
:100306008190818A93DE819A86DE818A8FDE819A48
:100316008180818A8BDE819A7EDE8190818A86DE6B
:10032600819A8186818481828180818A7FDE819A19
:0803360072DE01015981120081
:10033E000101586B100E585D37E2156A0A0E155CF6
:10034E0031E20E0E006E000E016E58C104F0000E6A
:10035E00056EE1DE1B0E0026000E01221550002454
:10036E005E6F000E01205F6F58C166F166376691B1
:10037E0066376691663766916637669115506627C1
:10038E00F2DE5EC1E1FF5FC1E2FF00C0E6FF1A0EC2
:10039E000C6EF80E0D6E0D2EFED70C2EFCD7000037
:0A03AE00152ACCD7582BC6D7120031
:1003B800010E01016C6F41DE010E666F010E676F61
:1003C800080E686F010E696FF7DE0B0E0B6E260EB6
:1003D8000C6E5D0E0D6E0D2EFED70C2EFCD70B2E5F
:1003E800FAD700000000010E6C6F27DE010E666F61
:1003F800010E676FFB0E686F000E696FDDDE12007D
:10040800FF0E01014C6FFF0E4D6FFF0E4E6FFF0E7A
:100418004F6FCE0E486F000E496F000E4A6F000EE8
:100428004B6F1A0E546F010E556F000E566F000E6B
:10043800576FFF0E506FFF0E516F000E526F000E78
:10044800536FAC8A900EAB6E948E949C9EAA03D088
:08045800AECF00F0FBD712004B
:10046000010E01016C6FEDDD010E666F010E676F0D
:10047000160E686F000E696FA3DE0B0E0B6E260E54
:100480000C6E5D0E0D6E0D2EFED70C2EFCD70B2EB6
:10049000FAD700000000010E6C6FD3DD010E666F0D
:1004A000010E676F190E686F010E696F89DE120009
:1004B000000E01015F1902E1000E5E1934E05EC119
:1004C000E9FF5FC1EAFFEE522EE060C166F161C153
:1004D00067F106DE00C06AF15EC166F15FC167F1D7
:1004E00060C168F161C169F1AADE000E011802E184
:1004F000000E001805E15EC100F05FC101F015D0EB
:10050000010E01015E25666F000E5F21676F60C1FD
:10051000E9FF61C1EAFFEECF68F134DE00C05EF1B1
:0C05200001C05FF1C5D7006A016A12003B
:10052C000101646B656B625342E06251FF0AD8A40F
:10053C006207EDDD0050000A01E1FBD7C2DD00C00F
:10054C0063F1010164515E25E16E000E5F21E26EE4
:10055C0000C0E6FF642B65516025E96E000E612139
:10056C00EA6EEE50631902E1652B09D0656B60C130
:10057C00E9FF61C1EAFFEE506319D8B4652B6551F0
:10058C006025E96E000E6121EA6EEE50000A0EE164
:10059C006551645D006E016A000E015A00505E25C3
:1005AC00E16E01505F21E26EE66A06D0BCD75EC1F7
:0A05BC00E1FF5FC1E2FFE66A1200F2
:1005C600BBDE6BDE6DDE010E6C6F38DD0C0E6C6F04
:1005D60035DD010E666F020E676F260E686F010E1F
:1005E600696FEBDDCF0EAF6EAC840BDF020E0B6EC8
:1005F600040E0C6EBA0E0D6E0D2EFED70C2EFCD709
:080606000B2EFAD700001200D0
:10060E000900F5CFE6FF0006FBE10106F9E1120055
:10061E007DDD0050010A32E1340E01015E6F010EE4
:10062E005F6F170E606F010E616F100E626F77DFD6
:10063E00156A100E155C1FE20101340E5E6F010E7D
:10064E005F6F0E0E006E000E016E15C004F0000EF0
:10065E00056E61DD1B0E0024606F000E0120616FC0
:10066E0020DF00C033F10050000A03E0F2DE006A22
:0E067E0005D0152ADED799DE006A00D01200E2
:10068C00949894968B988B9694889486C79EC79CC6
:06069C00380EC66E1200CC
:1006A200E9EC03F08FDF140EC86EEFDFB7DFFED781
:0206B200FFD770
:1007D20010EE15F01E0E006E020E016EB40EF66ED5
:0E07E200060EF76E000EF86E07EC03F0120024
:0106B4000045
:0506B500446F6E6500BA
:1006BA000000000000000000000000000000000030
:1006CA000000000000000000000000000000000020
:1006DA000000000000000000000000000000000010
:1006EA000000000000000000000000000000000000
:1006FA0000000000000000000000000000000000F0
:10070A0000000000000000000000000000000000DF
:10071A0000000000000000000000000000000000CF
:10072A0000000000000000000000000000000000BF
:10073A0000000000000000000000000000000000AF
:10074A00000000000000000000000000000000009F
:10075A00000000000000000000000000000000008F
:10076A00000000000000000000000000000000007F
:10077A00000000000000000000000000000000006F
:10078A00000000000000000000000000000000005F
:0D079A005061737320596F7572204944003F
:0F07A7004E6F74205265676973746572656400E4
:0207B6000D0034
:0D07B8005061737320596F75722049440021
:0D07C5005061737320596F75722049440014
:020000040030CA
:0D000100220F0EFF0181FF0FC00FE00F4026
:0200000400F00A
:10000000344530303743443239319F9F9F9F9F9F03
:100010009F9F9F9F9F9F9F9F9F9F9F9F9F9F9F9FF0
:100020009F9F9F9F9F9F9F9F9F9F9F9F9F9F9F9FE0
:100030009F9F9F9F9F9F9F9F9F9F9F9F9F9F9F9FD0
:100040009F9F9F9F9F9F9F9F9F9F9F9F9F9F9F9FC0
:100050009F9F9F9F9F9F9F9F9F9F9F9F9F9F9F9FB0
:100060009F9F9F9F9F9F9F9F9F9F9F9F9F9F9F9FA0
:100070009F9F9F9F9F9F9F9F9F9F9F9F9F9F9F9F90
:100080009F9F9F9F9F9F9F9F9F9F9F9F9F9F9F9F80
:100090009F9F9F9F9F9F9F9F9F9F9F9F9F9F9F9F70
:1000A0009F9F9F9F9F9F9F9F9F9F9F9F9F9F9F9F60
:1000B0009F9F9F9F9F9F9F9F9F9F9F9F9F9F9F9F50
:1000C0009F9F9F9F9F9F9F9F9F9F9F9F9F9F9F9F40
:1000D0009F9F9F9F9F9F9F9F9F9F9F9F9F9F9F9F30
:1000E0009F9F9F9F9F9F9F9F9F9F9F9F9F9F9F9F20
:1000F0009F9F9F9F9F9F9F9F9F9F9F9F9F9F9F9F10
:00000001FF

