:1000000001EF07F00000000000EF00F0000000002A
:0A0010000000000000000000F3D71C
:0A001C00210E0D6E0D2EFED712000E
:100026000F0E0C6E470E0D6E0D2EFED70C2EFCD746
:06003600000000001200B2
:06003C00000000001200AC
:10004200020131BF02D0819601D0818631BD02D03A
:10005200819401D0818431BB02D0819201D081820E
:1000620031B902D0819001D0818007B102D081885C
:1000720001D08198818AE1DF819A31B702D08196DD
:1000820001D0818631B502D0819401D0818431B30F
:1000920002D0819201D0818231B102D0819001D00F
:1000A200818007B102D0818801D08198818AC5DF21
:0E00B200819A07A102D0B6DF01D0AFDF1200A5
:0E00C000020107912CC231F2BCDF0781120051
:1000CE002CC2E9FF2DC2EAFFEE5002012E1905E106
:1000DE002CC200F02DC201F010D02CC200F02DC2A7
:1000EE0001F02C4B2D2B00C0E9FF01C0EAFFEECF33
:0C00FE0000F00052E5E1006A016A120007
:10010A002CC202F02DC203F002C000F003C001F0BD
:10011A00024A032A00C0E9FF01C0EAFFEE5201E0E9
:10012A00F3D702012C51025C006E2D510358016E67
:0A013A00010E005E000E015A1200D3
:1001440030C200F002013007005228E02CC2E9FF5F
:100154002DC2EAFFEE50000A0CE02CC2E9FF2DC2CA
:10016400EAFF2EC2D9FF2FC2DAFFEE50DE1801E1FA
:100174000FD02CC2E9FF2DC2EAFF2EC2D9FF2FC235
:10018400DAFFDE50EE5C006E016A000E015A08D000
:1001940002012C4B2D2B2E4B2F2BD2D7006A016A38
:0201A400120047
:0A01A600000E9EBA010E006E12005A
:1001B000AECF01F0ABA202D0AB98AB8801C000F08B
:0201C00012002B
:1001C20002012A6B2B6B285342E02851FF0AD8A464
:1001D2002807E8DF0050000A01E1FBD7E8DF00C092
:1001E20029F202012A512425E16E000E2521E26E38
:1001F20000C0E6FF2A2B2B512625E96E000E27218F
:10020200EA6EEE50291902E12B2B09D02B6B26C284
:10021200E9FF27C2EAFFEE502919D8B42B2B2B5144
:100222002625E96E000E2721EA6EEE50000A0EE145
:100232002B512A5D006E016A000E015A00502425DE
:10024200E16E01502521E26EE66A06D0BCD724C2D7
:0A025200E1FF25C2E2FFE66A120098
:0C025C00060E0D6E0D2EFED700001200E5
:100268000B6A0A6A096A00500402F4CF09F0F3CF56
:1002780008F001500502F4CF0BF0F3CF0AF000505C
:100288000502F3500926F4500A22E86A0B220150AD
:100298000402F3500926F4500A22E86A0B2208C027
:1002A80000F009C001F00AC002F00BC003F0120010
:1002B800000E0201251902E1000E241934E024C2BF
:1002C800E9FF25C2EAFFEE522EE026C22CF227C231
:1002D8002DF217DF00C030F224C22CF225C22DF215
:1002E80026C22EF227C22FF229DF000E011802E1E2
:1002F800000E001805E124C200F025C201F015D057
:10030800010E020124252C6F000E25212D6F26C217
:10031800E9FF27C2EAFFEECF2EF2D5DE00C024F2B5
:0C03280001C025F2C5D7006A016A12006E
:10033400A6A202D00000FCD7A69C24C2A9FF25C215
:10034400A8FFA69EA684F2CF00F0F29E550EA76EDB
:10035400AA0EA76EA68200BE02D0F29E01D0F28E33
:04036400A694120049
:100368000201246B266B276B100E286F040E275D85
:100378001DE2F00E836E281D956E5CDE5BDE0F0EAF
:100388008314006E00C025F200520AE026C224F24F
:10039800255304E02533259F242BFAD7040E276F15
:1003A80028372891040E2627272BE0D724C200F0EF
:0203B800120031
:1003BA0010D0800E0201246F1AD0C00E246F17D0FD
:1003CA00940E246F14D0D40E246F11D0800E246F93
:1003DA000ED002012451010AECE02451020AEDE098
:1003EA002451030AEDE02451040AEDE0EFD7250574
:1003FA00006E2451002600C024F200C031F21CDE37
:10040A000791286B28512625E96E000E2721EA6EEE
:10041A00EE520BE028512625E96E000E2721EA6EDE
:0E042A00EECF2CF248DE282BEDD70781120012
:10043800A69C24C2A9FFA69EA680A8CF00F0120001
:10044800516AADDE0050010A67E15150000A64E1CB
:10045800F10E0201246F010E256FBD0E266F000EEE
:10046800276F100E286FA9DE726A100E725C54E2B4
:100478000201F10E246F010E256F0E0E006E000EA4
:10048800016E72C004F0000E056EEADEE60E00246E
:10049800266F000E0120276F0BDF00C019F20050F5
:1004A800000A38E00201186B0A0E185D27E20E0EEA
:1004B800006E000E016E72C004F0000E056ED0DEF4
:1004C800E60E0026000E012218510024E16E000EEF
:1004D8000120E26E9F0EE66E72C024F2243724914A
:1004E8002437249124372491243724911851242720
:1004F8009F0E256F1BDF0201182BD6D7010E516EF8
:10050800010E246F030E256FD90E266F000E276F7C
:0C05180050DF02D0722AA9D794D712003D
:1005240051D0310E0201236F310E006E7CD0340E97
:10053400236F340E006E77D0370E236F370E006EA4
:1005440072D02A0E236F2A0E006E6DD0320E236FE6
:10055400320E006E68D0350E236F350E006E63D0F8
:10056400380E236F380E006E5ED0300E236F300EBF
:10057400006E59D0330E236F330E006E54D0360EF6
:10058400236F360E006E4FD0390E236F390E006E76
:100594004AD0230E236F230E006E45D0410E236FE5
:1005A400410E006E40D0420E236F420E006E3BD0CF
:1005B400430E236F430E006E36D0440E236F440E59
:1005C400006E31D002012351010AABE02351020A2B
:1005D400AEE02351030AB0E02351040AB2E02351F0
:1005E400050AB4E02351060AB6E02351070AB8E02D
:1005F4002351080ABAE02351090ABCE023510A0A2C
:10060400BEE023510B0AC0E023510C0AC2E023517F
:100614000D0AC4E023510E0AC6E023510F0AC8E0B4
:080624002351100ACAE0120084
:10062C009DDE00C023F20F0E8314006E02E010DE7C
:08063C00FAD723C200F01200FE
:10064400516AAFDD0050010AD8A4C9D05150000A44
:10065400D8A4C5D0F10E0201246F010E256FD60E69
:10066400266F010E276F100E286FA9DD726A100E17
:10067400725C29E20201F10E246F010E256F0E0E49
:10068400006E000E016E72C004F0000E056EEADD0D
:10069400E60E0024266F000E0120276F0BDE00C03B
:1006A40019F20050000A0DE0010E0201246F020E3F
:1006B400256FD80E266F010E276F7DDE010E516E59
:1006C40002D0722AD4D75150000AD8A488D0726AB2
:1006D4007250F0080EE372C024F2ACDE00C01AF2CD
:1006E40000509F0A03E172C0D5F103D0100E7226A8
:1006F400EFD7010E726E0B0E725C40E27204006E54
:1007040000500101D5250201246FF10EE96E010E9E
:10071400EA6E7250E926D8B0EA2AEECF25F208DE56
:10072400D5C100F00032009E0032009E0032009ECF
:100734000032009E000E016E0E0E046E000E056E59
:1007440091DDE60E0024026E000E0120036E720499
:10075400006E016A000E015A00500224E16E01503D
:100764000320E26EF10EE96E010EEA6E7250E92684
:10077400D8B0EA2AEECFE6FF722ABDD7F10E020105
:10078400246F010E256FD5C100F00032009E0032A7
:10079400009E0032009E0032009E000E016E0E0E7E
:1007A400046E000E056E5EDDE60E0024266F000E5C
:1007B4000120276F7FDD00C019F20050000A0FE00E
:1007C400010E0201316F3BDC010E246F030E256F15
:1007D400CC0E266F000E276FEEDD010E516E31D761
:0207E400120001
:1007E60002011B6B20DF00C01BF20052FBE01BC2A4
:1007F60023F295DE00C01BF20050310A1DE1010E06
:10080600316F1CDC010E246F010E256F520E266F10
:10081600000E276FCFDD0B0E0B6E260E0C6E5D0ED7
:100826000D6E0D2EFED70C2EFCD70B2EFAD7000020
:10083600000005DF006A28D002011B51320A1EE1C2
:10084600010E316F21EC00F0010E246F010E256FB1
:100856005F0E266F000E276FADDD0B0E0B6E260E9C
:100866000C6E5D0E0D6E0D2EFED70C2EFCD70B2ECC
:10087600FAD700000000E5DD006A06D002011B5130
:0A088600330A02E1006A00D01200FC
:100890000201186B100E185D37E2726A0A0E725C64
:1008A00031E20E0E006E000E016E18C204F0000E52
:1008B000056EDADCE60E0026000E012272500024DE
:1008C000206F000E0120216F18C224F224372491DA
:1008D00024372491243724912437249172502427DB
:1008E000ABDD20C2E1FF21C2E2FF00C0E6FF1A0E2D
:1008F0000C6EF80E0D6E0D2EFED70C2EFCD70000E0
:0A090000722ACCD7182BC6D71200BC
:10090A00010E0201316F21EC00F0010E246F010E7D
:10091A00256F3F0E266F000E276F4ADD0B0E0B6EFA
:10092A00260E0C6E5D0E0D6E0D2EFED70C2EFCD70C
:10093A000B2EFAD700000000010E316F21EC00F0F7
:10094A00010E246F010E256F150E266F000E276FFC
:04095A002FDD12007B
:10095E00FF0E0201106FFF0E116FFF0E126FFF0ED2
:10096E00136FB00E146F010E156F000E166F000E82
:10097E00176FA60E086F010E096F000E0A6F000E9C
:10098E000B6FFF0E0C6FFF0E0D6F000E0E6F000E35
:10099E000F6FAC8A900EAB6E948E949C9EAA03D071
:0809AE00AECF00F0FBD71200F0
:0609B600FF0E956E120019
:1009BC00939A93989390939293949396819A819807
:1009CC00819681948192819013EC00F013EC00F0ED
:1009DC0013EC00F081828180818A1EEC00F0819AF8
:1009EC0013EC00F0818A1EEC00F0819A13EC00F0FD
:1009FC00818A1EEC00F0819A13EC00F08190818AC0
:100A0C001EEC00F0819A13EC00F0818A1EEC00F0D1
:100A1C00819A81928186818A1EEC00F0819A13EC76
:100A2C0000F081968180818A1EEC00F0819A819081
:100A3C00818A1EEC00F0819A13EC00F0818A1EEC86
:100A4C0000F0819A8180818A1EEC00F0819A13EC6F
:100A5C0000F08190818A1EEC00F0819A818681845D
:100A6C0081828180818A1EEC00F0819A13EC00F067
:060A7C00020107811200D7
:100A820010D0800E0201206F1AD0C00E206F17D036
:100A9200940E206F14D0D40E206F11D0800E206FD0
:100AA2000ED002012051010AECE02051020AEDE0D1
:100AB2002051030AEDE02051040AEDE0EFD72105B1
:100AC200006E2051002600C020F2078100C031F2E2
:100AD20021EC00F0079122C231F221EC00F00781F3
:020AE200120000
:100AE400010E0201316F21EC00F0010E246F010EA2
:100AF400256FAC0E266F000E276F5DDC0B0E0B6EA0
:100B0400260E0C6E5D0E0D6E0D2EFED70C2EFCD730
:100B14000B2EFAD700000000010E316F21EC00F01B
:100B2400010E246F010E256F800E266F000E276FB5
:100B340042DC0B0E0B6E260E0C6E5D0E0D6E0D2E32
:100B4400FED70C2EFCD70B2EFAD700000000010EA6
:100B5400316F21EC00F0010E246F010E256F8E0E13
:100B6400266F000E276F27DC020E246F010E256FFF
:0E0B7400310E266F000E276F1EDC33DE1200DE
:100B8200716A726A010E0201316F21EC00F0010EEE
:100B9200246F010E256FC60E266F010E276F0CDC27
:100BA2000B0E0B6E260E0C6E5D0E0D6E0D2EFED70D
:0E0BB2000C2EFCD70B2EFAD70000000012000C
:100BC000010E0201316F21EC00F0010E246F010EC5
:100BD000256F220E266F000E276FDDEC01F00B0E45
:100BE0000B6E260E0C6E5D0E0D6E0D2EFED70C2EAE
:100BF000FCD70B2EFAD700000000010E316F21EC5C
:100C000000F0010E246F010E256F440E266F000EBA
:080C1000276FDDEC01F012007A
:100C18003BDECDDECFDE010E316F21EC00F00C0E95
:100C2800316F21EC00F0010E246F020E256FBF0E0C
:100C3800266F000E276FDDEC01F0CF0EAF6EAC848F
:100C48008ADE020E0B6E040E0C6EBA0E0D6E0D2EA1
:0E0C5800FED70C2EFCD70B2EFAD70000120090
:100C66000900F5CFE6FF0006FBE10106F9E11200F7
:100C760002011B6BD8DC00C01BF20050000A02E127
:100C8600006A75D01BC223F24ADC00C01BF2E70ED5
:100C9600E16E010EE26E7150E126000E71BEFF0E8E
:100CA600E22200C0E6FF020E206F7150010F216F95
:100CB6001BC222F2E3DE722A712A800E030A006E3C
:100CC600800E7118005C52E2020E206F7250010F06
:100CD600216FE70EE96E010EEA6E7150E926000EED
:100CE60071BEFF0EEA22EECF22F2C8DEE70E246FB7
:100CF600010E256F6C0E266F000E276F5CEC01F05F
:100D060000C005F20050000A20E0E9DE0B0E0B6E73
:100D1600260E0C6E5D0E0D6E0D2EFED70C2EFCD71C
:100D26000B2EFAD700000000010E0201316F21ECF4
:100D360000F0010E246F020E256F730E266F000E53
:100D4600276FDDEC01F0006A12D018DF010E316F5B
:100D560021EC00F0010E246F020E256F9F0E266F08
:100D6600000E276FDDEC01F0006A01D081D712007A
:100D7600D3EC00F00050010A35E1F10E0201246FB8
:100D8600010E256FD70E266F000E276F100E286FE7
:100D9600E1EC00F0726A100E725C21E20201F10EC3
:100DA600246F010E256F0E0E006E000E016E72C0CE
:100DB60004F0000E056E34EC01F0E60E0024266FFA
:100DC600000E0120276F5CEC01F000C006F2005017
:100DD600000A03E097DD006A05D0722ADCD7EDDE53
:060DE600006A00D01200BB
:100DEC00949894968B988B9694889486C79EC79C5F
:060DFC00380EC66E120065
:100E0200F9EC07F008DF140EC86EEFDFB3DF32DF54
:040E1200FDD7FFD732
:100FF20010EE15F0DC0E006E020E016E160EF66E8D
:0E1002000E0EF76E000EF86E33EC06F01200C4
:0D0E16005061737320596F757220494400BC
:0F0E23004E6F7420526567697374657265640061
:0E0E3200322052656D6F766520436172640058
:050E4000446F6E650027
:0D0E45005061737320596F7572204944008D
:010E5200009F
:0D0E5300507574205468652043617264007E
:0D0E60005075742054686520436172640071
:050E6D003131313100BC
:010E7200007F
:010E7300007E
:0D0E74005061737320596F7572204944005E
:0E0E810043686F6F7365204F7074696F6E0069
:100E8F003120416464436172642033204261636B9B
:010E9F000052
:0D0EA0005061737320596F75722049440032
:100EAD00436F72726563742050617373776F7264F0
:010EBD000034
:020EBE000D0025
:0D0EC0005061737320596F75722049440012
:0B0ECD004361726420416464656400AE
:020ED8000D000B
:0D0EDA00436172642052656D6F766564009F
:100EE70000000000000000000000000000000000FB
:100EF70000000000000000000000000000000000EB
:100F070000000000000000000000000000000000DA
:100F170000000000000000000000000000000000CA
:100F270000000000000000000000000000000000BA
:100F370000000000000000000000000000000000AA
:100F4700000000000000000000000000000000009A
:100F5700000000000000000000000000000000008A
:100F6700000000000000000000000000000000007A
:100F7700000000000000000000000000000000006A
:100F8700000000000000000000000000000000005A
:100F9700000000000000000000000000000000004A
:100FA700000000000000000000000000000000003A
:100FB700000000000000000000000000000000002A
:0F0FC700576F726E672050617373776F7264009B
:010FD600001A
:020FD7000D000B
:0F0FD900416C72656164792045786973747300A7
:0A0FE80000000000000000000000FF
:020000040030CA
:0D000100220F0EFF0181FF0FC00FE00F4026
:0200000400F00A
:10000000344530303743443239319F9F9F9F9F9F03
:100010009F9F9F9F9F9F9F9F9F9F9F9F9F9F9F9FF0
:100020009F9F9F9F9F9F9F9F9F9F9F9F9F9F9F9FE0
:100030009F9F9F9F9F9F9F9F9F9F9F9F9F9F9F9FD0
:100040009F9F9F9F9F9F9F9F9F9F9F9F9F9F9F9FC0
:100050009F9F9F9F9F9F9F9F9F9F9F9F9F9F9F9FB0
:100060009F9F9F9F9F9F9F9F9F9F9F9F9F9F9F9FA0
:100070009F9F9F9F9F9F9F9F9F9F9F9F9F9F9F9F90
:100080009F9F9F9F9F9F9F9F9F9F9F9F9F9F9F9F80
:100090009F9F9F9F9F9F9F9F9F9F9F9F9F9F9F9F70
:1000A0009F9F9F9F9F9F9F9F9F9F9F9F9F9F9F9F60
:1000B0009F9F9F9F9F9F9F9F9F9F9F9F9F9F9F9F50
:1000C0009F9F9F9F9F9F9F9F9F9F9F9F9F9F9F9F40
:1000D0009F9F9F9F9F9F9F9F9F9F9F9F9F9F9F9F30
:1000E0009F9F9F9F9F9F9F9F9F9F9F9F9F9F9F9F20
:1000F0009F9F9F9F9F9F9F9F9F9F9F9F9F9F9F9F10
:00000001FF

