:1000000006EF07F00000000000EF00F00000000025
:0A0010000000000000000000F3D71C
:10001C000F0E0C6E470E0D6E0D2EFED70C2EFCD750
:06002C00000000001200BC
:06003200000000001200B6
:0A003800210E0D6E0D2EFED71200F2
:10004200C7B409D01F0EC514016E0150000A03E1A6
:0A005200010E006E01D0006A1200DA
:10005C0002011CBF02D0819601D081861CBD02D04A
:10006C00819401D081841CBB02D0819201D0818209
:10007C001CB902D0819001D081800101F4B102D071
:10008C00818801D08198818ACEDF819A02011CB7C8
:10009C0002D0819601D081861CB502D0819401D00A
:1000AC0081841CB302D0819201D081821CB102D018
:1000BC00819001D081800101F4B102D0818801D0FE
:1000CC008198818AB0DF819AF4A102D0A1DF01D09E
:0400DC00ADDF120082
:1000E0001BC200F002011B07005228E017C2E9FF03
:1000F00018C2EAFFEE50000A0CE017C2E9FF18C26E
:10010000EAFF19C2D9FF1AC2DAFFEE50DE1801E188
:100110000FD017C2E9FF18C2EAFF19C2D9FF1AC2ED
:10012000DAFFDE50EE5C006E016A000E015A08D064
:100130000201174B182B194B1A2BD2D7006A016AF0
:020140001200AB
:1001420017C202F018C203F002C000F003C001F0AF
:10015200024A032A00C0E9FF01C0EAFFEE5201E0B1
:10016200F3D702011751025C006E18510358016E59
:0A017200010E005E000E015A12009B
:0E017C000101F49117C21CF26BDFF481120036
:10018A0017C2E9FF18C2EAFFEE500201191905E188
:10019A0017C200F018C201F010D017C200F018C23E
:1001AA0001F0174B182B00C0E9FF01C0EAFFEECFA0
:0C01BA0000F00052E5E1006A016A12004A
:1001C6000201176B186B1851120802E117518E08BD
:1001D60008E334DF005201E004D00201174B182B6C
:1001E600F2D70201120E185D02E18F0E175D03E3CE
:1001F6007B0E006E05D0C580C5A001D0FDD7006A74
:020206001200E4
:04020800C584120097
:10020C009E9617C2C9FFC7A401D0FDD79EB601D0D8
:10021C00FDD7C5BC02D0006A03D0C584020E006EA7
:02022C001200BE
:10022E009E96C5869EB601D0FDD7C9CF01F00201BC
:10023E001751000A02E1C58A01D0C59A9E96C5885B
:0C024E009EB601D0FDD701C000F01200E8
:10025A0012C200F00032009E0032009E0032009E60
:0A026A000032009E300E0026120044
:0E027400ACB202D00000FCD712C2ADFF1200E7
:0E0282000F0E02011215006E300E0026120043
:10029000A69C12C2A9FFA69EA680A8CF00F01200BD
:1002A000A6A202D00000FCD7A69C12C2A9FF13C2CE
:1002B000A8FFA69EA684F2CF00F0F29E550EA76E70
:1002C000AA0EA76EA68200BE02D0F29E01D0F28EC8
:0402D000A6941200DE
:1002D400000E0201131902E1000E121934E012C2D9
:1002E400E9FF13C2EAFFEE522EE014C217F215C260
:1002F40018F225DF00C01BF212C217F213C218F263
:1003040014C219F215C21AF2E9DE000E011802E154
:10031400000E001805E112C200F013C201F015D05E
:10032400010E02011225176F000E1321186F14C25B
:10033400E9FF15C2EAFFEECF19F225DF00C012F281
:0C03440001C013F2C5D7006A016A120064
:100350003ADFD00E0201176F59DF12C217F256DFD3
:1003600053DF31DFD10E0201176F50DF0201176B2F
:0E0370005EDF00C013F248DF13C200F012007F
:10037E000B6A0A6A096A00500402F4CF09F0F3CF3F
:10038E0008F001500502F4CF0BF0F3CF0AF0005045
:10039E000502F3500926F4500A22E86A0B22015096
:1003AE000402F3500926F4500A22E86A0B2208C010
:1003BE0000F009C001F00AC002F00BC003F01200F9
:0A03CE00000E9EBA010E006E120030
:1003D80010D0800E0201126F1AD0C00E126F17D003
:1003E800940E126F14D0D40E126F11D0800E126FAB
:1003F8000ED002011251010AECE01251020AEDE09E
:100408001251030AEDE01251040AEDE0EFD713058B
:10041800006E1251002600C012F200C01CF21ADE53
:10042800F4910201166B16511425E96E000E152180
:10043800EA6EEE520CE016511425E96E000E1521F5
:10044800EA6EEECF17F296DE0201162BECD7010109
:04045800F481120019
:10045C00AECF01F0ABA202D0AB98AB8801C000F0DC
:02046C0012007C
:10046E000201126B6EDF00C0FEF1000E0101FF6F84
:10047E00010E0201126F65DF00C0F0F1000E0101E6
:10048E00F16F020E0201126F5CDF00C0F2F1000E7E
:10049E000101F36F1F0EF215006EF3C101F0000E95
:1004AE00011600C0ECF101C0EDF1200EF215EE6F59
:1004BE00F3C1EFF1000EEF1700C012F2C7DE00C05D
:1004CE0015F0ECC112F2D6DE00C016F0F0C112F239
:1004DE00BDDE00C018F0F0C112F2CCDE00C019F083
:1004EE00FEC112F2B3DE00C01BF0FEC112F2C2DE7C
:1004FE0000C01CF00101EE51EF1105E0500E1E6E12
:10050E004D0E1F6E04D0410E1E6E4D0E1F6E12004C
:10051E000101136B828A54DF0050010AD8A4FFD068
:10052E0001011351000AD8A4FAD06F6B0C0E6F5D47
:10053E0019E246DF005201E1FCD7D70E02010F6F20
:10054E00010E106F01016F5102010F27D8B0102B51
:10055E007EDF0FC2E1FF10C2E2FF00C0E6FF010125
:10056E006F2BE4D7829AD7510A0AD8A4C8D0E25189
:10057E000D0AD8A4C4D06F6B100E6F5D2FE2D70E8C
:10058E000201126F010E136F0E0E006E000E016E41
:10059E006FC104F0000E056EEBDE2E0E0024146FFC
:1005AE00000E0120156F8FDE00C0D5F10050000A3D
:1005BE0012E0010E02011C6F4ADD010E0201126FE4
:1005CE00020E136F700E146F010E156FFEDE010E0C
:1005DE00136F006AA5D001016F2BCED71351000AFD
:1005EE00D8A48CD06F6B6F51F0080EE36FC112F26E
:1005FE0048DE00C0FDF100509F0A03E16FC191F18A
:10060E0003D0100E6F27EFD7010E6F6F0B0E6F5DBD
:10061E0041E26F05006E005091250201126FD70E58
:10062E00E96E010EEA6E01016F51E926D8B0EA2A91
:10063E00EECF13F22EDE91C100F00032009E00329A
:10064E00009E0032009E0032009E000E016E0E0EC5
:10065E00046E000E056E8CDE2E0E0024026E000E51
:10066E000120036E01016F05006E016A000E015A32
:10067E0000500224E16E01500320E26ED70EE96EA7
:10068E00010EEA6E6F51E926D8B0EA2AEECFE6FFE8
:10069E006F2BBCD7D70E0201126F010E136F91C1D3
:1006AE0000F00032009E0032009E0032009E0032AA
:1006BE00009E000E016E0E0E046E000E056E58DECC
:1006CE002E0E0024146F000E0120156FFCDD00C0ED
:1006DE00D5F10050000A12E0010E02011C6FB7DCCA
:1006EE00010E0201126F030E136F7F0E146F010EB7
:1006FE00156F6BDE010E136F006A12D010D0010E53
:10070E0002011C6FA4DC010E0201126F050E136FA5
:10071E008A0E146F010E156F58DE006A01D0FBD6DB
:02072E001200B7
:100730000101136B828A4BDE0050010AD8A49CD0C1
:100740001351000AD8A498D06F6B0C0E6F5D19E29C
:100750003EDE005201E1FCD7D70E02010F6F010E01
:10076000106F01016F5102010F27D8B0102B76DEF8
:100770000FC2E1FF10C2E2FF00C0E6FF01016F2BD4
:10078000E4D7829AD7510A0A66E1E2510D0A63E181
:100790006F6B100E6F5D5EE2D70E0201126F010EDD
:1007A000136F0E0E006E000E016E6FC104F0000E8E
:1007B000056EE5DD2E0E0024146F000E0120156F6E
:1007C00089DD00C0D5F10050000A41E00101D66B7F
:1007D0000A0ED65D2AE20E0E006E000E016E6FC18B
:1007E00004F0000E056ECBDD2E0E0026000E012259
:1007F000D6510024E16E000E0120E26E9F0EE66EDF
:100800006FC112F202011237129112371291123790
:100810001291123712910101D651020112279F0E37
:10082000136F3EDD0101D62BD3D7010E136F010EDE
:1008300002011C6F13DC010E0201126F030E136F15
:10084000140E146F010E156FC7DD006A16D001017A
:100850006F2B9FD711D0010E02011C6F2EEC00F000
:10086000010E0201126F050E136F210E146F010E9F
:0C087000156FB2DD006A01D05ED71200E7
:10087C000201116B0FC2E9FF10C2EAFFEECF00F2CA
:10088C000051000A0EE000C212F2EEDC0201112B44
:10089C0011510F25E96E000E1021EA6EEECF00F219
:0408AC00EFD7120070
:1008B000740E0201016F020E026F120E036F020E20
:1008C000046F5C0E056F040E066F000E076F000EBE
:1008D000086FCE0E0101F56F030EF66F000EF76F75
:1008E000000EF86FFF0EF96FFF0EFA6F000EFB6F30
:1008F000000EFC6FAC8A900EAB6E948E949C9EAAF8
:0A09000003D0AECF00F0FBD71200C9
:10090A00939A93989390939293949396819A8198B9
:10091A0081968194819281900EEC00F00EEC00F0A9
:10092A000EEC00F081828180818A19EC00F0819AB4
:10093A000EEC00F0818A19EC00F0819A0EEC00F0BE
:10094A00818A19EC00F0819A0EEC00F08190818A7C
:10095A0019EC00F0819A0EEC00F0818A19EC00F093
:10096A00819A81928186818A19EC00F0819A0EEC33
:10097A0000F081968180818A19EC00F0819A819039
:10098A00818A19EC00F0819A0EEC00F0818A19EC48
:10099A0000F0819A8180818A19EC00F0819A0EEC2C
:1009AA0000F08190818A19EC00F0819A8186818415
:1009BA0081828180818A19EC00F0819A0EEC00F024
:0609CA000101F48112009E
:1009D0000101D66B100ED65D3BE26F6B0A0E6F5DA8
:1009E00035E20E0E006E000E016ED6C104F0000E50
:1009F000056EC5DC2E0E0026000E01226F5100246C
:100A000002010D6F000E01200E6FD6C112F21237D7
:100A1000129112371291123712911237129101016D
:100A20006F510201122734DC0DC2E1FF0EC2E2FF5A
:100A300000C0E6FF1A0E0C6EF80E0D6E0D2EFED7DE
:100A40000C2EFCD7000001016F2BC8D7D62BC2D7C4
:020A5000120092
:060A5200FF0E956E12007C
:100A58000ADD010E02011C6F2EEC00F0010E0201EE
:100A6800126F010E136F0E0E146F010E156FB0DCAE
:100A7800020E0201126F010E136F150E146F000E95
:100A8800156FA6DCD70E02010F6F010E106FF2DE94
:100A98000D0E126F3AEC01F00A0E0201126F3AECD9
:100AA80001F0150E02010F6F000E106FE3DE0D0E40
:100AB800126F3AEC01F00A0E0201126F3AEC01F0E3
:100AC8000B0E0B6E260E0C6E5D0E0D6E0D2EFED7E8
:100AD8000C2EFCD70B2EFAD700000000010E0201E5
:100AE8001C6F2EEC00F0010E0201126F010E136F45
:0C0AF800210E146F000E156F6BDC120055
:100B0400010E02011C6F2EEC00F0010E0201126FA7
:100B1400010E136FA50E146F010E156F5BDC0B0E27
:100B24000B6E260E0C6E5D0E0D6E0D2EFED70C2E6A
:100B3400FCD70B2EFAD700000000010E02011C6F37
:100B44002EEC00F0010E0201126F010E136FB40EB1
:0A0B5400146F010E156F3EDC120055
:100B5E00010E02011C6F2EEC00F0010E0201126F4D
:100B6E00030E136FC90E146F010E156F2EDC020EDD
:100B7E000201126F050E136FC10E146F010E156F69
:100B8E0024DC0B0E0B6E260E0C6E5D0E0D6E0D2EF6
:100B9E00FED70C2EFCD70B2EFAD700000000010E4C
:100BAE0002011C6F2EEC00F0010E0201126F010EFD
:100BBE00136F430E146F010E156F07DC0B0E0B6EC9
:100BCE00260E0C6E5D0E0D6E0D2EFED70C2EFCD766
:100BDE000B2EFAD700000000010E02011C6F2EEC46
:100BEE0000F0010E0201126F010E136F510E146F01
:100BFE00010E156FECEC01F0020E0201126F010EE8
:100C0E00136F280E146F010E156FECEC01F082B00D
:100C1E0021D0010E02011C6F2EEC00F0010E02011C
:100C2E00126F010E136F360E146F010E156FECEC72
:100C3E0001F00B0E0B6E260E0C6E5D0E0D6E0D2E54
:100C4E00FED70C2EFCD70B2EFAD70000000060DC6E
:100C5E00006A28D082B221D0010E02011C6F2EEC48
:100C6E0000F0010E0201126F010E136F620E146F6F
:100C7E00010E156FECEC01F00B0E0B6E260E0C6ECA
:100C8E005D0E0D6E0D2EFED70C2EFCD70B2EFAD749
:100C9E000000000046DD006A05D082B402D0006A72
:060CAE0001D0B5D71200D1
:100CB4000F01386B396B3A6B3B6B9480948294844C
:100CC400949A828A828A82DEC2DE1DDE010E0201CD
:100CD4001C6F2EEC00F00C0E02011C6F2EEC00F0C9
:100CE400010E0201126F020E136F920E146F010EA9
:100CF400156FECEC01F0B886030EB06E400EAF6ECB
:100D0400AC84D4DD020E0B6E040E0C6EBA0E0D6EA6
:100D14000D2EFED70C2EFCD70B2EFAD70000120096
:100D24000900F5CFE6FF0006FBE10106F9E1120038
:100D3400828AE7EC01F00050010A5AE101016F6B6D
:100D44000C0E6F5D1BE2E7EC01F0005201E1FBD7F2
:100D5400D70E0201096F010E0A6F01016F510201E2
:100D64000927D8B00A2B2EEC02F009C2E1FF0AC20F
:100D7400E2FF00C0E6FF01016F2BE2D7829AD75150
:100D84000A0A36E1E2510D0A33E16F6B100E6F5D12
:100D94002CE2D70E0201126F010E136F0E0E006EBD
:100DA400000E016E6FC104F0000E056EBFEC01F081
:100DB4002E0E0024146F000E0120156F6AEC01F052
:100DC40000C0EBF10050000A07E001016F51000A76
:100DD40003E1C3DE006A0CD00101EB51000A03E019
:100DE40039DE006A05D06F2BD1D78ADE006A00D0C5
:020DF4001200EB
:100DF600949894968B988B9694889486C79EC79C55
:060E0600380EC66E12005A
:100E0C00F5EC07F051DF140EC86EEFDF9F0E0201F8
:0E0E1C000F6F010E106F2CDD87DFFED7FFD7A2
:100FEA0010EE15F0C00E006E020E016E2A0EF66E9D
:0E0FFA000E0EF76E000EF86E92EC06F012006E
:0C0E2A0030303A30303A303020504D006B
:0D0E36005061737320596F7572204944009C
:100E4300000000000000000000000000000000009F
:100E5300000000000000000000000000000000008F
:100E6300000000000000000000000000000000007F
:100E7300000000000000000000000000000000006F
:100E8300000000000000000000000000000000005F
:100E9300000000000000000000000000000000004F
:100EA300000000000000000000000000000000003F
:100EB300000000000000000000000000000000002F
:100EC300000000000000000000000000000000001F
:100ED300000000000000000000000000000000000F
:100EE30000000000000000000000000000000000FF
:100EF30000000000000000000000000000000000EF
:100F030000000000000000000000000000000000DE
:100F130000000000000000000000000000000000CE
:050F2300446F6E650043
:010F280000C8
:0D0F2900436172642052656D6F766564004F
:070F36004661696C6564006F
:0E0F3D00322052656D6F76652043617264004C
:0D0F4B005075742054686520436172640085
:0E0F580043686F6F7365204F7074696F6E0091
:100F66003120416464436172642033204261636BC3
:010F7600007A
:0D0F77005075742054686520436172640059
:010F8400006C
:0F0F8500416C72656164792045786973747300FB
:0B0F94004361726420416464656400E6
:070F9F004661696C65640006
:010FA600004A
:0D0FA7005061737320596F7572204944002A
:060FB40053746172740029
:0F0FBA004E6F74205265676973746572656400C9
:0D0FC9005061737320596F75722049440008
:080FD6004170706C6965640054
:0C0FDE004D617374657220436172640001
:020000040030CA
:0D000100231F3CFFBF81FF0FC00FE00F4029
:0200000400F00A
:10000000344530303743443239319F9F9F9F9F9F03
:100010009F9F9F9F9F9F9F9F9F9F9F9F9F9F9F9FF0
:100020009F9F9F9F9F9F9F9F9F9F9F9F9F9F9F9FE0
:100030009F9F9F9F9F9F9F9F9F9F9F9F9F9F9F9FD0
:100040009F9F9F9F9F9F9F9F9F9F9F9F9F9F9F9FC0
:100050009F9F9F9F9F9F9F9F9F9F9F9F9F9F9F9FB0
:100060009F9F9F9F9F9F9F9F9F9F9F9F9F9F9F9FA0
:100070009F9F9F9F9F9F9F9F9F9F9F9F9F9F9F9F90
:100080009F9F9F9F9F9F9F9F9F9F9F9F9F9F9F9F80
:100090009F9F9F9F9F9F9F9F9F9F9F9F9F9F9F9F70
:1000A0009F9F9F9F9F9F9F9F9F9F9F9F9F9F9F9F60
:1000B0009F9F9F9F9F9F9F9F9F9F9F9F9F9F9F9F50
:1000C0009F9F9F9F9F9F9F9F9F9F9F9F9F9F9F9F40
:1000D0009F9F9F9F9F9F9F9F9F9F9F9F9F9F9F9F30
:1000E0009F9F9F9F9F9F9F9F9F9F9F9F9F9F9F9F20
:1000F0009F9F9F9F9F9F9F9F9F9F9F9F9F9F9F9F10
:00000001FF

