:10000000A9EF07F00000000000EF00F00000000082
:0A0010000000000000000000F3D71C
:0A001C00210E0D6E0D2EFED712000E
:100026000F0E0C6E470E0D6E0D2EFED70C2EFCD746
:06003600000000001200B2
:06003C00000000001200AC
:1000420002014DBF02D0819601D081864DBD02D002
:10005200819401D081844DBB02D0819201D08182F2
:100062004DB902D0819001D0818030B102D0818817
:1000720001D08198818AE1DF819A4DB702D08196C1
:1000820001D081864DB502D0819401D081844DB3D7
:1000920002D0819201D081824DB102D0819001D0F3
:1000A200818030B102D0818801D08198818AC5DFF8
:0E00B200819A30A102D0B6DF01D0AFDF12007C
:0E00C0000201309148C24DF2BCDF30811200C7
:1000CE0048C2E9FF49C2EAFFEE5002014A1905E1B2
:1000DE0048C200F049C201F010D048C200F049C237
:1000EE0001F0484B492B00C0E9FF01C0EAFFEECFFB
:0C00FE0000F00052E5E1006A016A120007
:10010A0048C202F049C203F002C000F003C001F085
:10011A00024A032A00C0E9FF01C0EAFFEE5201E0E9
:10012A00F3D702014851025C006E49510358016E2F
:0A013A00010E005E000E015A1200D3
:100144004CC200F002014C07005228E048C2E9FF0B
:1001540049C2EAFFEE50000A0CE048C2E9FF49C276
:10016400EAFF4AC2D9FF4BC2DAFFEE50DE1801E1C2
:100174000FD048C2E9FF49C2EAFF4AC2D9FF4BC2C5
:10018400DAFFDE50EE5C006E016A000E015A08D000
:100194000201484B492B4A4B4B2BD2D7006A016AC8
:0201A400120047
:0A01A600000E9EBA010E006E12005A
:1001B000AECF01F0ABA202D0AB98AB8801C000F08B
:0201C00012002B
:0C01C200060E0D6E0D2EFED70000120080
:1001CE000201436B456B466B100E476F040E465D86
:1001DE001DE2F00E836E471D956E29DF28DF0F0E90
:1001EE008314006E00C044F200520AE045C243F28E
:1001FE00445304E04433449F432BFAD7040E466F16
:10020E0047374791040E4527462BE0D743C200F0EF
:02021E001200CC
:100220000B6A0A6A096A00500402F4CF09F0F3CF9E
:1002300008F001500502F4CF0BF0F3CF0AF00050A4
:100240000502F3500926F4500A22E86A0B220150F5
:100250000402F3500926F4500A22E86A0B2208C06F
:1002600000F009C001F00AC002F00BC003F0120058
:10027000000E0201441902E1000E431934E043C2AA
:10028000E9FF44C2EAFFEE522EE045C248F246C200
:1002900049F23BDF00C04CF243C248F244C249F28B
:1002A00045C24AF246C24BF24DDF000E011802E190
:1002B000000E001805E143C200F044C201F015D061
:1002C000010E02014325486F000E4421496F45C2CB
:1002D000E9FF46C2EAFFEECF4AF2F9DE00C043F280
:0C02E00001C044F2C5D7006A016A120098
:1002EC00A6A202D00000FCD7A69C43C2A9FF44C220
:1002FC00A8FFA69EA684F2CF00F0F29E550EA76E24
:10030C00AA0EA76EA68200BE02D0F29E01D0F28E7B
:04031C00A694120091
:10032000A69C43C2A9FFA69EA680A8CF00F01200FB
:1003300010D0800E0201436F1AD0C00E436F17D049
:10034000940E436F14D0D40E436F11D0800E436FC0
:100350000ED002014351010AECE04351020AEDE0E4
:100360004351030AEDE04351040AEDE0EFD74405A1
:10037000006E4351002600C043F200C04DF261DE22
:100380003091476B47514525E96E000E4621EA6ED4
:10039000EE520BE047514525E96E000E4621EA6E0C
:0E03A000EECF48F28DDE472BEDD730811200F4
:1003AE000101226B8280F8DE0050010AD8A400D130
:1003BE0001012251000AD8A4FBD0246B0C0E245D3F
:1003CE0019E2EADE005201E1FCD70B0E0201416F89
:1003DE00020E426F0101245102014127D8B0422B77
:1003EE00E0DE41C2E1FF42C2E2FF00C0E6FF0101D2
:1003FE00242BE4D7829002010B510A0AD8A4C9D04B
:10040E0016510D0AD8A4C5D00101246B100E245D1F
:10041E002FE20B0E0201436F020E446F0E0E006EA2
:10042E00000E016E24C104F0000E056EF2DE260EE3
:10043E000024456F000E0120466F13DF00C021F22D
:10044E000050000A12E0010E02014D6FF3DD010EA5
:10045E00436F020E446F060E456F010E466F61DF4D
:10046E00010E0101226F006AA4D00101242BCED708
:10047E002251000AD8A48CD0246B2451F0080EE32C
:10048E0024C143F246DF00C020F200509F0A03E170
:10049E0024C1B7F103D0100E2427EFD7010E246F1D
:1004AE000B0E245D41E22405006E0050B7250201BB
:1004BE00436F0B0EE96E020EEA6E01012451E9261E
:1004CE00D8B0EA2AEECF44F20ADFB7C100F000320C
:1004DE00009E0032009E0032009E0032009E000EF2
:1004EE00016E0E0E046E000E056E93DE260E0024B7
:1004FE00026E000E0120036E01012405006E016ADA
:10050E00000E015A00500224E16E01500320E26EEB
:10051E000B0EE96E020EEA6E2451E926D8B0EA2AD5
:10052E00EECFE6FF242BBCD70B0E0201436F020E5B
:10053E00446FB7C100F00032009E0032009E0032C0
:10054E00009E0032009E000E016E0E0E046E000E16
:10055E00056E5FDE260E0024456F000E0120466FED
:10056E0080DE00C021F20050000A12E0010E0201EE
:10057E004D6F60DD010E436F030E446FB80E456F75
:10058E00010E466FCEDE010E0101226F006A11D000
:10059E000FD0010E02014D6F4DDD010E436F050EA2
:1005AE00446FB00E456F010E466FBBDE006A01D080
:0405BE00FAD6120057
:1005C20051D0310E0201416F310E006E7CD0340EDB
:1005D200416F340E006E77D0370E416F370E006ECA
:1005E20072D02A0E416F2A0E006E6DD0320E416F0C
:1005F200320E006E68D0350E416F350E006E63D03C
:10060200380E416F380E006E5ED0300E416F300EE4
:10061200006E59D0330E416F330E006E54D0360E39
:10062200416F360E006E4FD0390E416F390E006E9B
:100632004AD0230E416F230E006E45D0410E416F0A
:10064200410E006E40D0420E416F420E006E3BD012
:10065200430E416F430E006E36D0440E416F440E7E
:10066200006E31D002014151010AABE04151020A50
:10067200AEE04151030AB0E04151040AB2E04151F7
:10068200050AB4E04151060AB6E04151070AB8E052
:100692004151080ABAE04151090ABCE041510A0A33
:1006A200BEE041510B0AC0E041510C0AC2E0415187
:1006B2000D0AC4E041510E0AC6E041510F0AC8E0DA
:0806C2004151100ACAE01200C8
:1006CA000101226B82806ADD0050010AD8A49AD007
:1006DA0001012251000AD8A495D0246B0C0E245D86
:1006EA0019E25CDD005201E1FCD70B0E0201416FF9
:1006FA00020E426F0101245102014127D8B0422B58
:10070A0052DD41C2E1FF42C2E2FF00C0E6FF010141
:10071A00242BE4D7829002010B510A0A64E1165194
:10072A000D0A61E10101246B100E245D5BE20B0EE0
:10073A000201436F020E446F0E0E006E000E016E30
:10074A0024C104F0000E056E66DD260E0024456FF6
:10075A00000E0120466F87DD00C021F20050000A1A
:10076A003EE00201356B0A0E355D27E20E0E006E81
:10077A00000E016E24C104F0000E056E4CDD260E3B
:10078A000026000E012235510024E16E000E0120E0
:10079A00E26E9F0EE66E24C143F24337439143371C
:1007AA0043914337439143374391355143279F0E32
:1007BA00446F97DD0201352BD6D7010E0101226F56
:1007CA00010E02014D6F38DC010E436F030E446FB8
:1007DA007D0E456F010E466FA6DD006A14D0010139
:1007EA00242BA2D70FD0010E02014D6F25DC010E7A
:1007FA00436F050E446F8A0E456F010E466F93DDF7
:08080A00006A01D060D7120062
:0E081200ACB202D00000FCD741C2ADFF120014
:10082000D6DC00C041F20F0E8314006E02E0C9DC7A
:08083000FAD741C200F01200EA
:100838000201226BF1DF00C022F20052FBE022C26B
:1008480041F2BBDE00C022F20050310A1EE1010E67
:100858004D6F21EC00F0010E436F010E446FD00E76
:10086800456F010E466F60DD0B0E0B6E260E0C6E8B
:100878005D0E0D6E0D2EFED70C2EFCD70B2EFAD763
:100888000000000090DD006A28D002012251320ADF
:100898001EE1010E4D6F21EC00F0010E436F010EB9
:1008A800446FC30E456F010E466F3EDD0B0E0B6E97
:1008B800260E0C6E5D0E0D6E0D2EFED70C2EFCD77F
:1008C8000B2EFAD700000000FCDE006A06D00201F9
:0C08D8002251330A02E1006A00D0120035
:1008E4000201406B3DC2E9FF3EC2EAFFEECF3FF298
:1008F4003F51000A0EE03FC241F289DF0201402B62
:1009040040513D25E96E000E3E21EA6EEECF3FF2E6
:04091400EFD7120007
:10091800010E02014D6F21EC00F0010E436F010E34
:10092800446F150E456F000E466FFEDC020E436FD6
:10093800010E446F1A0E456F000E466FF5DC0B0E64
:100948003D6F020E3E6FCADF0D0E416F5EDF0A0E6D
:100958000201416F5ADF1A0E02013D6F000E3E6F11
:10096800BDDF0D0E416F51DF0A0E0201416F4DDFF1
:100978000B0E0B6E260E0C6E5D0E0D6E0D2EFED739
:100988000C2EFCD70B2EFAD700000000010E020136
:100998004D6F21EC00F0010E436F010E446F150EF0
:0A09A800456F010E466FC0DC12001F
:1009B200120E0201316F080E326F410E336F020EBA
:1009C200346FB00E2C6F010E2D6F000E2E6F000EC5
:1009D2002F6FA60E246F010E256F000E266F000EDC
:1009E200276FFF0E286FFF0E296F000E2A6F000E71
:1009F2002B6FAC8A900EAB6E948E949C9EAA03D001
:080A0200AECF00F0FBD712009B
:100A0A000201356B100E355D3EE20101246B0A0EC0
:100A1A00245D36E20E0E006E000E016E35C204F041
:100A2A00000E056E10EC01F0260E0026000E0122C3
:100A3A002451002402013A6F000E01203B6F35C297
:100A4A0043F2433743914337439143374391433703
:100A5A00439101012451020143275DDC3AC2E1FFBF
:100A6A003BC2E2FF00C0E6FF1A0E0C6EF80E0D6ED6
:100A7A000D2EFED70C2EFCD700000101242BC7D760
:080A8A000201352BBFD7120059
:060A9200FF0E956E12003C
:100A9800939A93989390939293949396819A81982A
:100AA800819681948192819013EC00F013EC00F010
:100AB80013EC00F081828180818A1EEC00F0819A1B
:100AC80013EC00F0818A1EEC00F0819A13EC00F020
:100AD800818A1EEC00F0819A13EC00F08190818AE3
:100AE8001EEC00F0819A13EC00F0818A1EEC00F0F5
:100AF800819A81928186818A1EEC00F0819A13EC9A
:100B080000F081968180818A1EEC00F0819A8190A4
:100B1800818A1EEC00F0819A13EC00F0818A1EECA9
:100B280000F0819A8180818A1EEC00F0819A13EC92
:100B380000F08190818A1EEC00F0819A8186818480
:100B480081828180818A1EEC00F0819A13EC00F08A
:060B5800020130811200D1
:100B5E0010D0800E02013A6F1AD0C00E3A6F17D025
:100B6E00940E3A6F14D0D40E3A6F11D0800E3A6FA5
:100B7E000ED002013A51010AECE03A51020AEDE0C0
:100B8E003A51030AEDE03A51040AEDE0EFD73B0586
:100B9E00006E3A51002600C03AF2308100C04DF28C
:100BAE0021EC00F030913CC24DF221EC00F030818E
:020BBE00120023
:100BC0000101236B010E02014D6F21EC00F0010EBB
:100BD000436F010E446F910E456F010E466F98EC06
:100BE00001F00B0E0B6E260E0C6E5D0E0D6E0D2EB3
:100BF000FED70C2EFCD70B2EFAD700000000010EFA
:100C00004D6F21EC00F0010E436F010E446FA20EF8
:100C1000456F010E466F98EC01F00B0E0B6E260E21
:100C20000C6E5D0E0D6E0D2EFED70C2EFCD70B2E0E
:100C3000FAD700000000010E4D6F21EC00F0010E0C
:100C4000436F010E446FDD0E456F010E466F98EC49
:100C500001F0020E436F010E446FEE0E456F010E60
:0A0C6000466F98EC01F0E8DD120089
:100C6A000101236B246B010E02014D6F21EC00F090
:100C7A00010E436F010E446F610E456F010E466F00
:100C8A0098EC01F00B0E0B6E260E0C6E5D0E0D6EBF
:100C9A000D2EFED70C2EFCD70B2EFAD70000000023
:020CAA00120036
:100CAC00010E02014D6F21EC00F0010E436F010E9D
:100CBC00446FFC0E456F010E466F98EC01F00B0E65
:100CCC000B6E260E0C6E5D0E0D6E0D2EFED70C2EC1
:100CDC00FCD70B2EFAD700000000010E4D6F21EC53
:100CEC0000F0010E436F010E446F2F0E456F010E85
:080CFC00466F98EC01F01200B4
:100D04000F01386B396B3A6B3B6B94908280828015
:100D14007ADEBDDEBFDE010E4D6F21EC00F00C0E5D
:100D24004D6F21EC00F0010E436F020E446F700E04
:100D3400456F010E466F98EC01F0B886030EB06E55
:100D4400400EAF6EAC8433DE020E0B6E040E0C6EDE
:100D5400BA0E0D6E0D2EFED70C2EFCD70B2EFAD725
:040D64000000120079
:100D68000900F5CFE6FF0006FBE10106F9E11200F4
:100D78000201226B51DD00C022F20050000A02E19C
:100D8800006A7ED022C241F218DC00C022F2250E91
:100D9800E16E010EE26E01012351E126000E23BF30
:100DA800FF0EE22200C0E6FF020E02013A6F0101C7
:100DB8002351010F02013B6F22C23CF2CCDE01013C
:100DC800242B232B800E030A006E800E2319005C4F
:100DD80056E2020E02013A6F01012451010F02018D
:100DE8003B6F250EE96E010EEA6E01012351E926DB
:100DF800000E23BFFF0EEA22EECF3CF2ACDE250E3A
:100E0800436F010E446F560E456F010E466F38EC66
:100E180001F000C023F20050000A20E0CDDE0B0EE6
:100E28000B6E260E0C6E5D0E0D6E0D2EFED70C2E63
:100E3800FCD70B2EFAD700000000010E02014D6FFF
:100E480021EC00F0010E436F020E446F490E456F0E
:100E5800010E466F98EC01F0006A12D002DF010E15
:100E68004D6F21EC00F0010E436F020E446F3C0EF3
:100E7800456F010E466F98EC01F0006A01D078D7F3
:020E8800120056
:100E8A00949894968B988B9694889486C79EC79CC0
:060E9A00380EC66E1200C6
:100EA0008280D3EC00F00050010A52E10101246B72
:100EB0000C0E245D1BE2D3EC00F0005201E1FBD7E5
:100EC0000B0E0201366F020E376F01012451020131
:100ED0003627D8B0372BD8EC00F036C2E1FF37C246
:100EE000E2FF00C0E6FF0101242BE2D7829002015D
:100EF0000B510A0A2DE116510D0A2AE10101246B5A
:100F0000100E245D22E20B0E0201436F020E446FAD
:100F10000E0E006E000E016E24C104F0000E056E70
:100F200010EC01F0260E0024456F000E0120466FE4
:100F300038EC01F000C01FF20050000A03E0ECDCC6
:100F4000006A06D00101242BDBD7B0DE006A00D096
:020F500012008D
:100F5200B3EC08F0D6DE140EC86E96DF5B0E3D6F62
:0E0F6200010E3E6FBEDC9BDF06DFFDD7FFD722
:1011660010EE15F0F60E006E020E016E700EF66EA3
:0E1176000F0EF76E000EF86EB4EC06F01200CD
:050F7000446F6E6500F6
:0C0F750030303A30303A303020504D001F
:100F81000000000000000000000000000000000060
:100F91000000000000000000000000000000000050
:100FA1000000000000000000000000000000000040
:100FB1000000000000000000000000000000000030
:100FC1000000000000000000000000000000000020
:100FD1000000000000000000000000000000000010
:100FE1000000000000000000000000000000000000
:100FF10000000000000000000000000000000000F0
:1010010000000000000000000000000000000000DF
:1010110000000000000000000000000000000000CF
:1010210000000000000000000000000000000000BF
:1010310000000000000000000000000000000000AF
:10104100000000000000000000000000000000009F
:10105100000000000000000000000000000000008F
:0F106100416C726561647920457869737473001E
:0D1070005061737320596F75722049440060
:01107D000072
:01107E000071
:01107F000070
:0A1080000000000000000000000066
:0D108A005061737320596F75722049440046
:0D1097005061737320596F75722049440039
:0D10A4005061737320596F7572204944002C
:0510B100313131310076
:0610B60053746172740026
:0F10BC00576F726E672050617373776F726400A5
:0D10CB005061737320596F75722049440005
:0D10D800436172642052656D6F766564009F
:0710E5004661696C656400BF
:1010EC00436F72726563742050617373776F7264AF
:0110FC0000F3
:0E10FD0043686F6F7365204F7074696F6E00EB
:07110B004661696C65640098
:0111120000DC
:0B111300436172642041646465640065
:0D111E0050757420546865204361726400B0
:0D112B0050757420546865204361726400A3
:101138003120416464436172642033204261636BEF
:0111480000A6
:0E114900322052656D6F76652043617264003E
:0F1157004E6F742052656769737465726564002A
:020000040030CA
:0D000100231F3CFFBF81FF0FC00FE00F4029
:0200000400F00A
:10000000344530303743443239319F9F9F9F9F9F03
:100010009F9F9F9F9F9F9F9F9F9F9F9F9F9F9F9FF0
:100020009F9F9F9F9F9F9F9F9F9F9F9F9F9F9F9FE0
:100030009F9F9F9F9F9F9F9F9F9F9F9F9F9F9F9FD0
:100040009F9F9F9F9F9F9F9F9F9F9F9F9F9F9F9FC0
:100050009F9F9F9F9F9F9F9F9F9F9F9F9F9F9F9FB0
:100060009F9F9F9F9F9F9F9F9F9F9F9F9F9F9F9FA0
:100070009F9F9F9F9F9F9F9F9F9F9F9F9F9F9F9F90
:100080009F9F9F9F9F9F9F9F9F9F9F9F9F9F9F9F80
:100090009F9F9F9F9F9F9F9F9F9F9F9F9F9F9F9F70
:1000A0009F9F9F9F9F9F9F9F9F9F9F9F9F9F9F9F60
:1000B0009F9F9F9F9F9F9F9F9F9F9F9F9F9F9F9F50
:1000C0009F9F9F9F9F9F9F9F9F9F9F9F9F9F9F9F40
:1000D0009F9F9F9F9F9F9F9F9F9F9F9F9F9F9F9F30
:1000E0009F9F9F9F9F9F9F9F9F9F9F9F9F9F9F9F20
:1000F0009F9F9F9F9F9F9F9F9F9F9F9F9F9F9F9F10
:00000001FF

